:060003008E098F0A8D0B2F
:10000900E4F50CA907E9C394805004E4F980027966
:10001900807D807C00E97A002400FFEA3509F50D2E
:100029008F0EED7003EC6401601E850E82850D83D1
:10003900E4938D828C83F0050C0DBD00010C050E37
:10004900E50E70DE050D80DAAB0AA903E9C39480D9
:10005900E9500A2480FFE433FCAD0780037C00FDEE
:100069008D828C83E50BF08BA6E509FFF5A775AEAC
:10007900FFA2AF9200C2AF75C7AA75C755439F01CA
:10008900A20092AFA2AF9200C2AF75C7AA75C755B9
:1000990043A501A20092AF75AF22A2AF9200C2AFF1
:1000A90075C7AA75C75543A401A20092AFA903E970
:1000B900C394805004E4F9800279807C007D8089B2
:1000C900A68FA7A2AF9200C2AF75C7AA75C755433D
:1000D9009F01A20092AFA2AF9200C2AF75C7AA75E5
:1000E900C75543A501A20092AF75AF21EDF44C604D
:1000F900238D828C83E0F5AEA2AF9200C2AF75C7A3
:10010900AA75C75543A401A20092AF05A60DBD006B
:10011900010C80D8A2AF9200C2AF75C7AA75C755A6
:1001290053A5FEA20092AFA2AF9200C2AF75C7AAB3
:0A01390075C755539FFEA20092AF58
:010143002299
:040551008F828E8384
:03055500E493FF2D
:010558002280
:100505007F007EC27D017C001204CC7D557F817EFB
:10051500381200037D567F821200037DAA7F551293
:1005250000037D667F561200037F821205518F08F6
:0205350080FE46
:1004CC0053B1BF53B2BF53B17F53B27F75985043F2
:1004DC008920438780438E1053C4DFAB07AA06A93B
:1004EC0005A8047F407E427D0F7C00120180EF0442
:0904FC00F404F58DD28ED2992290
:100236008F128E118D108C0F53B1BF53B2BF53B1B5
:100246007F53B27F75985043878053C4F843C420C8
:10025600AB12AA11A910A80F7F407E427D0F7C0029
:10026600120180C374FF9FFF74FF9EFEE49DFDE4B0
:100276009CFC78081202238FC6AB12AA11A910A8FB
:100286000F7F407E427D0F7C00120180C374FF9F6A
:09029600FF8FC543C408D2992270
:070559003098FDAF99C29834
:010560002278
:08056100C2998F993099FD2227
:10029F008F168E158D148C1353B1FB53B2FB53B3C2
:1002AF00BF53B4BF75F85075C40853C4DFAB16AA5B
:1002BF0015A914A8137F407E427D0F7C0012018088
:1002CF00C374FF9FFF74FF9EFEE49DFDE49CFC78CA
:1002DF00081202238FC6AB16AA15A914A8137F40C4
:1002EF007E427D0F7C00120180C374FF9FFF8FC57C
:0402FF0043C40822CA
:0705690030F8FDAF9AC2F863
:010570002268
:08057100C2F98F9A30F9FD2256
:1003EB008F1A8E198D188C17538EF7438901D28C67
:1003FB00E4FFFEFDFCAB1AAA19A918A817C3120239
:10040B00126025758A7E758CFF308DFDC28DE51AC5
:10041B0024FFF51AE51934FFF519E51834FFF51823
:0B042B00E51734FFF51780C8C28C22D3
:100436008F1E8E1D8D1C8C1B538EF7438901D28C0B
:10044600E4FFFEFDFCAB1EAA1DA91CA81BC31202DD
:10045600126025758ACA758CFA308DFDC28DE51E2F
:1004660024FFF51EE51D34FFF51DE51C34FFF51CC4
:0B047600E51B34FFF51B80C8C28C2280
:100481008F248E238D228C21538EEF438910D28E9F
:10049100E4FFFEFDFCAB24AA23A922A821C312027A
:1004A100126025758BEA758DCB308FFDC28FE524E7
:1004B10024FFF524E52334FFF523E52234FFF5225B
:0B04C100E52134FFF52180C8C28E2227
:100303008F288E278D268C2553C9BF53C9DF43C938
:1003130010D2CAE4FFFEFDFCAB28AA27A926A82514
:10032300C3120212602575CC3075CDF830CFFDC2F3
:10033300CFE52824FFF528E52734FFF527E5263404
:0E034300FFF526E52534FFF52580C8C2CA2245
:100351008F2C8E2B8D2A8C2975C40743C408E4FF8A
:10036100FEFDFCAB2CAA2BA92AA829C312021260FC
:100371002875C52C75C6CFE5C430E4FB53C4EFE541
:100381002C24FFF52CE52B34FFF52BE52A34FFF562
:0D0391002AE52934FFF52980C553C4F72261
:10039E008F308E2F8D2E8C2D75C40743C408E4FF2D
:1003AE00FEFDFCAB30AA2FA92EA82DC3120212609F
:1003BE002875C5D875C6FFE5C430E4FB53C4EFE518
:1003CE003024FFF530E52F34FFF52FE52E34FFF501
:0D03DE002EE52D34FFF52D80C553C4F72208
:03000000020537BF
:10053700787FE4F6D8FD9000007FFF7E03E4F0A308
:0A054700DFFCDEFA758130020505C5
:1001440075F008758200EF2FFFEE33FECD33CDCC72
:1001540033CCC58233C5829BED9AEC99E5829840F5
:100164000CF582EE9BFEED9AFDEC99FC0FD5F0D6D2
:10017400E4CEFBE4CDFAE4CCF9A88222B800C1B9FC
:100184000059BA002DEC8BF084CFCECDFCE5F0CB3A
:10019400F97818EF2FFFEE33FEED33FDEC33FCEB73
:1001A40033FB10D703994004EB99FB0FD8E5E4F92E
:1001B400FA227818EF2FFFEE33FEED33FDEC33FC1B
:1001C400C933C910D7059BE99A4007EC9BFCE99A0F
:1001D400F90FD8E0E4C9FAE4CCFB2275F010EF2F54
:1001E400FFEE33FEED33FDCC33CCC833C810D70754
:1001F4009BEC9AE899400AED9BFDEC9AFCE899F88F
:0E0204000FD5F0DAE4CDFBE4CCFAE4C8F92221
:10021200EB9FF5F0EA9E42F0E99D42F0E89C45F042
:0102220022B9
:10022300E8600FECC313FCED13FDEE13FEEF13FFB9
:03023300D8F122DD
:00000001FF
