:03002C000143008D
:030033000201E8DF
:1001E800C0E0C083C082C0D075D000C000C007AFD7
:1001F800BDEF120128021F00025B6002236802277C
:1002080080023D88025BA0024BA8024DB8025BC089
:10021800025BC80000025DD2C4803AC28280FE74CC
:10022800212543F8A6BC0543E543B42204C2C28095
:1002380024D2C2802074212543F8A6BC754300D27D
:10024800C28012800074212543F8E6F5BC0543D22C
:10025800C28002D2C2C2C320C4FDD007D000D0D011
:07026800D082D083D0E03208
:1004680053B3F753B4F753B3EF53B4EFD294D293D3
:10047800A2AF920075C7AA75C75575910143B240DE
:1004880075C7AA75C755E4F591A20092AF439B01C1
:0A049800D2AF75C1A4D2C6D2C222B1
:1004D900E4F5B1F5B1F5B3F5B4F5ACF5AD120468D1
:0204E90080FE93
:1004A20053B1BF53B2BF53B17F53B27F759852431A
:1004B2008920438780438E1053C4DFAB07AA06A965
:1004C20005A8047F407E427D0F7C00120072EF047B
:0704D200F404F58DD28E2227
:10026F008F0B8E0A8D098C0853B1BF53B2BF53B198
:10027F007F53B27F75985243878053C4F843C4208D
:10028F00AB0BAA0AA909A8087F407E427D0F7C000C
:10029F00120072C374FF9FFF74FF9EFEE49DFDE486
:1002AF009CFC78081201158FC6AB0BAA0AA909A8E6
:1002BF00087F407E427D0F7C00120072C374FF9F47
:0702CF00FF8FC543C40822A4
:070024003098FDAF99C2986E
:01002B0022B2
:0804EB00C2998F993099FD229E
:1002D6008F0F8E0E8D0D8C0C53B1FB53B2FB53B3A7
:1002E600BF53B4BF75F85253C4F8AB0FAA0EA90D8D
:1002F600A80C7F407E427D0F7C00120072C374FF03
:100306009FFF74FF9EFEE49DFDE49CFC78081201AD
:10031600158FC6AB0FAA0EA90DA80C7F407E427D95
:100326000F7C00120072C374FF9FFF8FC543C40881
:0103360022A4
:0704F30030F8FDAF9AC2F8DA
:0104FA0022DF
:0804FB00C2F98F9A30F9FD22CD
:10000300538EF7438901D28CEF4E6012758A7E7549
:100013008CFF308DFDC28DEF1F70ED1E80EAC28C08
:0100230022BA
:1003D2008F138E128D118C10538EF7438901D28C9C
:1003E200E4FFFEFDFCAB13AA12A911A810C312016F
:1003F200046025758ACA758CFA308DFDC28DE513AD
:1004020024FFF513E51234FFF512E51134FFF5115F
:0B041200E51034FFF51080C8C28C22FA
:10041D008F178E168D158C14538EEF438910D28E37
:10042D00E4FFFEFDFCAB17AA16A915A814C3120113
:10043D00046025758BEA758DCB308FFDC28FE51766
:10044D0024FFF517E51634FFF516E51534FFF51500
:0B045D00E51434FFF51480C8C28E22A5
:100337008F1B8E1A8D198C1853C9BF53C9DF43C938
:1003470010D2CAE4FFFEFDFCAB1BAA1AA919A81814
:10035700C3120104602575CC3075CDF830CFFDC2CE
:10036700CFE51B24FFF51BE51A34FFF51AE5193411
:0E037700FFF519E51834FFF51880C8C2CA2238
:100385008F1F8E1E8D1D8C1C75C40743C408E4FF8A
:10039500FEFDFCAB1FAA1EA91DA81CC3120104600B
:1003A5002875C53C75C6F6E5C430E4FB53C4EFE5D6
:1003B5001F24FFF51FE51E34FFF51EE51D34FFF56F
:0D03C5001DE51C34FFF51C80C553C4F72254
:0300000002014EAC
:10014E00787FE4F6D8FD9000007FFF7E03E4F0A3F5
:0A015E00DFFCDEFA7581430201A305
:100168000204D9E493A3F8E493A34003F68001F2D0
:1001780008DFF48029E493A3F85407240CC8C33398
:10018800C4540F4420C8834004F456800146F6DF67
:10019800E4800B010204081020408090002CE47ECB
:1001A800019360BCA3FF543F30E509541FFEE4935C
:1001B800A360010ECF54C025E060A840B8E493A323
:1001C800FAE493A3F8E493A3C8C582C8CAC583CA4E
:1001D800F0A3C8C582C8CAC583CADFE9DEE780BE06
:01002F0000D0
:1000360075F008758200EF2FFFEE33FECD33CDCC81
:1000460033CCC58233C5829BED9AEC99E582984004
:100056000CF582EE9BFEED9AFDEC99FC0FD5F0D6E1
:10006600E4CEFBE4CDFAE4CCF9A88222B800C1B90B
:100076000059BA002DEC8BF084CFCECDFCE5F0CB49
:10008600F97818EF2FFFEE33FEED33FDEC33FCEB82
:1000960033FB10D703994004EB99FB0FD8E5E4F93D
:1000A600FA227818EF2FFFEE33FEED33FDEC33FC2A
:1000B600C933C910D7059BE99A4007EC9BFCE99A1E
:1000C600F90FD8E0E4C9FAE4CCFB2275F010EF2F63
:1000D600FFEE33FEED33FDCC33CCC833C810D70763
:1000E6009BEC9AE899400AED9BFDEC9AFCE899F89E
:0E00F6000FD5F0DAE4CDFBE4CCFAE4C8F92231
:10010400EB9FF5F0EA9E42F0E99D42F0E89C45F051
:0101140022C8
:10011500E8600FECC313FCED13FDEE13FEEF13FFC8
:03012500D8F122EC
:10012800D083D082F8E4937012740193700DA3A366
:1001380093F8740193F5828883E47374029368607A
:06014800EFA3A3A380DF7A
:00000001FF
