:03000000020C16D9
:0C0C1600787FE4F6D8FD7581280209BF44
:100BDD0053B1BF53B2BF53B17F53B27F75985043DA
:100BED008920438780438E1053C4DFAB07AA06A923
:100BFD0005A8047F407E427D0F7C0012083CEF0467
:090C0D00F404F58DD28ED2992277
:1008F2008F0C8E0B8D0A8C0953B1BF53B2BF53B10B
:100902007F53B27F75985043878053C4F843C42005
:10091200AB0CAA0BA90AA8097F407E427D0F7C007E
:1009220012083CC374FF9FFF74FF9EFEE49DFDE42A
:100932009CFC78081208DF8FC6AB0CAA0BA90AA888
:10094200097F407E427D0F7C0012083CC374FF9FEA
:09095200FF8FC543C408D29922AD
:070C22003098FDAF99C29864
:010C290022A8
:080C2A00C2998F993099FD2257
:10095B008F108E0F8D0E8C0D53B1FB53B2FB53B317
:10096B00BF53B4BF75F85075C40853C4DFAB10AA9E
:10097B000FA90EA80D7F407E427D0F7C0012083C14
:10098B00C374FF9FFF74FF9EFEE49DFDE49CFC7807
:10099B00081208DF8FC6AB10AA0FA90EA80D7F4057
:1009AB007E427D0F7C0012083CC374FF9FFF8FC5F6
:0409BB0043C4082207
:070C320030F8FDAF9AC2F893
:010C39002298
:080C3A00C2F98F9A30F9FD2286
:100AFC008F148E138D128C11538EF7438901D28C67
:100B0C00E4FFFEFDFCAB14AA13A912A811C3120832
:100B1C00CE6025758A7E758CFF308DFDC28DE514F7
:100B2C0024FFF514E51334FFF513E51234FFF51229
:0B0B3C00E51134FFF51180C8C28C22C7
:100B47008F188E178D168C15538EF7438901D28C0B
:100B5700E4FFFEFDFCAB18AA17A916A815C31208D7
:100B6700CE6025758ACA758CFA308DFDC28DE51861
:100B770024FFF518E51734FFF517E51634FFF516CA
:0B0B8700E51534FFF51580C8C28C2274
:100B92008F1C8E1B8D1A8C19538EEF438910D28EA7
:100BA200E4FFFEFDFCAB1CAA1BA91AA819C312087C
:100BB200CE6025758BEA758DCB308FFDC28FE51C1B
:100BC20024FFF51CE51B34FFF51BE51A34FFF51A6B
:0B0BD200E51934FFF51980C8C28E221F
:100A14008F0C8E0B8D0A8C0953C9BF53C9DF43C990
:100A240010D2CAE4FFFEFDFCAB0CAA0BA90AA8096C
:100A3400C31208CE602575CC3075CDF830CFFDC219
:100A4400CFE50C24FFF50CE50B34FFF50BE50A3478
:0E0A5400FFF50AE50934FFF50980C8C2CA2281
:100A62008F248E238D228C2175C40743C408E4FF92
:100A7200FEFDFCAB24AA23A922A821C31208CE6042
:100A82002875C52C75C6CFE5C430E4FB53C4EFE529
:100A92002424FFF524E52334FFF523E52234FFF572
:0D0AA20022E52134FFF52180C553C4F72261
:100AAF008F288E278D268C2575C40743C408E4FF35
:100ABF00FEFDFCAB28AA27A926A825C31208CE60E5
:100ACF002875C5D875C6FFE5C430E4FB53C4EFE500
:100ADF002824FFF528E52734FFF527E52634FFF511
:0D0AEF0026E52534FFF52580C553C4F72208
:1009BF00E4F5B1F5B1F5B3F5B4F5ACF5ADFF7EC225
:1009CF007D01FC1208F2438E021508C2927F2C7E25
:1009DF00017D007C00120A14D2927F2C7E017D00D3
:1009EF007C00120A147F55120C2A75ACFFE4F5AD8A
:1009FF00F5ACF5AD30B004D2908002C290740625EC
:050A0F0008F50880C499
:1008000075F008758200EF2FFFEE33FECD33CDCCAF
:1008100033CCC58233C5829BED9AEC99E582984032
:100820000CF582EE9BFEED9AFDEC99FC0FD5F0D60F
:10083000E4CEFBE4CDFAE4CCF9A88222B800C1B939
:100840000059BA002DEC8BF084CFCECDFCE5F0CB77
:10085000F97818EF2FFFEE33FEED33FDEC33FCEBB0
:1008600033FB10D703994004EB99FB0FD8E5E4F96B
:10087000FA227818EF2FFFEE33FEED33FDEC33FC58
:10088000C933C910D7059BE99A4007EC9BFCE99A4C
:10089000F90FD8E0E4C9FAE4CCFB2275F010EF2F91
:1008A000FFEE33FEED33FDCC33CCC833C810D70791
:1008B0009BEC9AE899400AED9BFDEC9AFCE899F8CC
:0E08C0000FD5F0DAE4CDFBE4CCFAE4C8F9225F
:1008CE00EB9FF5F0EA9E42F0E99D42F0E89C45F080
:0108DE0022F7
:1008DF00E8600FECC313FCED13FDEE13FEEF13FFF7
:0308EF00D8F1221B
:00000001FF
