:03000B0002000EE2
:09000E0085088C850A8AB2923241
:03001B000202528C
:0902520085098D850B8BB2833206
:1001E700E4F5B1F5B1F5B3F5B4F5ACF5AD5389F078
:1001F70043890153890F438910538EEF75083C7566
:100207000AB075099E750B5885088C850A8A850979
:100217008D850B8BD2A9D2ABD2AFD28CD28E80FE7A
:100106008F0F8E0E8D0D8C0C538EF7438901D28C7A
:10011600E4FFFEFDFCAB0FAA0EA90DA80CC312024C
:10012600416025758A7E758CFF308DFDC28DE50F89
:1001360024FFF50FE50E34FFF50EE50D34FFF50D42
:0B014600E50C34FFF50C80C8C28C22D1
:100151008F138E128D118C10538EF7438901D28C1F
:10016100E4FFFEFDFCAB13AA12A911A810C31202F1
:10017100416025758ACA758CFA308DFDC28DE513F3
:1001810024FFF513E51234FFF512E51134FFF511E3
:0B019100E51034FFF51080C8C28C227E
:10019C008F178E168D158C14538EEF438910D28EBB
:1001AC00E4FFFEFDFCAB17AA16A915A814C3120296
:1001BC00416025758BEA758DCB308FFDC28FE517AD
:1001CC0024FFF517E51634FFF516E51534FFF51584
:0B01DC00E51434FFF51480C8C28E2229
:10001E008F1B8E1A8D198C1853C9BF53C9DF43C954
:10002E0010D2CAE4FFFEFDFCAB1BAA1AA919A81830
:10003E00C3120241602575CC3075CDF830CFFDC2AC
:10004E00CFE51B24FFF51BE51A34FFF51AE519342D
:0E005E00FFF519E51834FFF51880C8C2CA2254
:10006C008F1F8E1E8D1D8C1C75C40743C408E4FFA6
:10007C00FEFDFCAB1FAA1EA91DA81CC312024160E9
:10008C002875C52C75C6CFE5C430E4FB53C4EFE529
:10009C001F24FFF51FE51E34FFF51EE51D34FFF58B
:0D00AC001DE51C34FFF51C80C553C4F72270
:1000B9008F248E238D228C2175C40743C408E4FF45
:1000C900FEFDFCAB24AA23A922A821C31202416088
:1000D9002875C5D875C6FFE5C430E4FB53C4EFE500
:1000E9002424FFF524E52334FFF523E52234FFF525
:0D00F90022E52134FFF52180C553C4F72214
:03000000020227D2
:10022700787FE4F6D8FD9000007FFF7E03E4F0A31B
:0A023700DFFCDEFA7581240201E706
:10024100EB9FF5F0EA9E42F0E99D42F0E89C45F013
:01025100228A
:00000001FF
