:1002C2008F108E0F8D0E8C0D538EF7438901D28CB9
:1002D200E4FFFEFDFCAB10AA0FA90EA80DC312008D
:1002E200D16025758A7E758CFF308DFDC28D74FFBD
:1002F2002510F510E50F34FFF50FE50E34FFF50E6E
:0B030200E50D34FFF50D80C8C28C2211
:10030D008F148E138D128C11538EF7438901D28C5D
:10031D00E4FFFEFDFCAB14AA13A912A811C3120031
:10032D00D16025758ACA758CFA308DFDC28D74FF2A
:10033D002514F514E51334FFF513E51234FFF5120A
:0B034D00E51134FFF51180C8C28C22BE
:100358008F188E178D168C15538EEF438910D28EF9
:10036800E4FFFEFDFCAB18AA17A916A815C31200D6
:10037800D16025758BEA758DCB308FFDC28F74FFE8
:100388002518F518E51734FFF517E51634FFF516A7
:0B039800E51534FFF51580C8C28E2269
:1001DA008F0C8E0B8D0A8C0953C9BF53C9DF43C9D3
:1001EA0010D2CAE4FFFEFDFCAB0CAA0BA90AA809AF
:1001FA00C31200D1602575CC3075CDF830CFFDC261
:10020A00CF74FF250CF50CE50B34FFF50BE50A342A
:0E021A00FFF50AE50934FFF50980C8C2CA22C3
:100228008F1C8E1B8D1A8C1975C40743C408E4FFF4
:10023800FEFDFCAB1CAA1BA91AA819C31200D160A9
:100248002875C52C75C6CFE5C430E4FB53C4EF74DC
:10025800FF251CF51CE51B34FFF51BE51A34FFF5DB
:0D0268001AE51934FFF51980C553C4F722BB
:100275008F248E238D228C2175C40743C408E4FF87
:10028500FEFDFCAB24AA23A922A821C31200D1603C
:100295002875C5D875C6FFE5C430E4FB53C4EF74B3
:1002A500FF2524F524E52334FFF523E52234FFF566
:0D02B50022E52134FFF52180C553C4F72256
:1003DE0053B1BF53B2BF53B17F53B27F75985043E1
:1003EE008920438780438E1053C4DFAB07AA06A92A
:1003FE0005A8047F407E427D0F7C0012003FEF0473
:09040E00F404F58DD28ED299227E
:1000F5008F0C8E0B8D0A8C0953B1BF53B2BF53B110
:100105007F53B27F75985043878053C4F843C4200A
:10011500AB0CAA0BA90AA8097F407E427D0F7C0083
:1001250012003FC374FF9FFF74FF9EFEE49DFDE434
:100135009CFC78081200E28FC6AB0CAA0BA90AA892
:10014500097F407E427D0F7C0012003FC374FF9FF4
:10015500FF74FF9EFEE49DFDE49CFCEFE48FC54328
:05016500C408D299223C
:070423003098FDAF99C2986B
:01042A0022AF
:08042B00C2998F993099FD225E
:10016A008F288E278D268C2553B1FB53B2FB53B3B0
:10017A00BF53B4BF75F85075C40853C4DFAB28AA7F
:10018A0027A926A8257F407E427D0F7C0012003FCA
:10019A00C374FF9FFF74FF9EFEE49DFDE49CFC7800
:1001AA00081200E28FC6AB28AA27A926A8257F40F5
:1001BA007E427D0F7C0012003FC374FF9FFF74FFD5
:1001CA009EFEE49DFDE49CFCEFE48FC543C4082237
:0704330030F8FDAF9AC2F89A
:01043A00229F
:08043B00C2F98F9A30F9FD228D
:1003A300E4F5B1F5B2F5B3F5B4F5ACF5ADFF7EC246
:1003B3007D01FC1200F5438E02C2957FE87E037D2A
:1003C300007C001201DAD2957FE87E037D007C0079
:0A03D3001201DA7F5512042B80DFBF
:0103DD0022FD
:03000000020417E0
:0C041700787FE4F6D8FD7581280203A36D
:1000030075F008758200EF2FFFEE33FECD33CDCCB4
:1000130033CCC58233C5829BED9AEC99E582984037
:100023000CF582EE9BFEED9AFDEC99FC0FD5F0D614
:10003300E4CEFBE4CDFAE4CCF9A88222B800C1B93E
:100043000059BA002DEC8BF084CFCECDFCE5F0CB7C
:10005300F97818EF2FFFEE33FEED33FDEC33FCEBB5
:1000630033FB10D703994004EB99FB0FD8E5E4F970
:10007300FA227818EF2FFFEE33FEED33FDEC33FC5D
:10008300C933C910D7059BE99A4007EC9BFCE99A51
:10009300F90FD8E0E4C9FAE4CCFB2275F010EF2F96
:1000A300FFEE33FEED33FDCC33CCC833C810D70796
:1000B3009BEC9AE899400AED9BFDEC9AFCE899F8D1
:0E00C3000FD5F0DAE4CDFBE4CCFAE4C8F92264
:1000D100EB9FF5F0EA9E42F0E99D42F0E89C45F085
:0100E10022FC
:1000E200E8600FECC313FCED13FDEE13FEEF13FFFC
:0300F200D8F12220
:00000001FF
