:08006C0002090000021B000064
:03007B00020296E8
:10029600C0E0C0D075D000C00030F813C2F8740BAF
:1002A600250AF8A69A050AE50A70020509D2003061
:0B02B600F902C2F9D000D0D0D0E03235
:1002C10053B3FB43B4047F007EC27D017C00120165
:0F02D100F9439C01D2AF3000FDB292C20080F71A
:10025D0053B1BF53B2BF53B17F53B27F7598504363
:10026D008920438780438E1053C4DFAB07AA06A9AC
:10027D0005A8047F407E427D0F7C001200BAEF047A
:09028D00F404F58DD28ED2992201
:100003008F248E238D228C2153B1BF53B2BF53B1A2
:100013007F53B27F75985043878053C4F843C420FD
:10002300AB24AA23A922A8217F407E427D0F7C0016
:100033001200BAC374FF9FFF74FF9EFEE49DFDE4AC
:100043009CFC780812014C8FC6AB24AA23A922A8D2
:10005300217F407E427D0F7C001200BAC374FF9F54
:09006300FF8FC543C408D29922A5
:0702E0003098FDAF99C298B0
:0102E70022F4
:0802E800C2998F993099FD22A3
:1001F9008F288E278D268C2553B1FB53B2FB53B321
:10020900BF53B4BF75F85075C40853C4DFAB28AAEF
:1002190027A926A8257F407E427D0F7C001200BABF
:10022900C374FF9FFF74FF9EFEE49DFDE49CFC7870
:100239000812014C8FC6AB28AA27A926A8257F40FA
:100249007E427D0F7C001200BAC374FF9FFF8FC5E9
:0402590043C4082270
:0702F00030F8FDAF9AC2F8DF
:0102F70022E4
:0802F800C2F98F9A30F9FD22D2
:0300000002015F9B
:10015F00787FE4F6D8FD9000007FFF7E03E4F0A3E4
:0A016F00DFFCDEFA7581280201B4FE
:100179000202C1E493A3F8E493A34003F68001F2D9
:1001890008DFF48029E493A3F85407240CC8C33387
:10019900C4540F4420C8834004F456800146F6DF56
:1001A900E4800B010204081020408090006CE47E7A
:1001B900019360BCA3FF543F30E509541FFEE4934B
:1001C900A360010ECF54C025E060A840B8E493A312
:1001D900FAE493A3F8E493A3C8C582C8CAC583CA3D
:1001E900F0A3C8C582C8CAC583CADFE9DEE780BEF5
:01007400008B
:10007E0075F008758200EF2FFFEE33FECD33CDCC39
:10008E0033CCC58233C5829BED9AEC99E5829840BC
:10009E000CF582EE9BFEED9AFDEC99FC0FD5F0D699
:1000AE00E4CEFBE4CDFAE4CCF9A88222B800C1B9C3
:1000BE000059BA002DEC8BF084CFCECDFCE5F0CB01
:1000CE00F97818EF2FFFEE33FEED33FDEC33FCEB3A
:1000DE0033FB10D703994004EB99FB0FD8E5E4F9F5
:1000EE00FA227818EF2FFFEE33FEED33FDEC33FCE2
:1000FE00C933C910D7059BE99A4007EC9BFCE99AD6
:10010E00F90FD8E0E4C9FAE4CCFB2275F010EF2F1A
:10011E00FFEE33FEED33FDCC33CCC833C810D7071A
:10012E009BEC9AE899400AED9BFDEC9AFCE899F855
:0E013E000FD5F0DAE4CDFBE4CCFAE4C8F922E8
:10014C00E8600FECC313FCED13FDEE13FEEF13FF91
:03015C00D8F122B5
:00000001FF
