:03008B000200036D
:10000300C0E0C0F0C083C082C0D075D000C000C0C3
:1000130001C002C003C004C005C006C007C2927F6E
:10002300057E007D007C00120265D2927F057E0072
:100033007D007C00120265C2927F057E007D007CFC
:1000430000120265D292538FEFD007D006D005D0AD
:1000530004D003D002D001D000D0D0D082D083D03E
:04006300F0D0E032C7
:10008E0053B3FB43B404C2927F907E017D007C008B
:10009E0012021AD2927F907E017D007C0012021A0B
:1000AE00C2927F907E017D007C0012021AD2927F56
:1000BE00907E017D007C0012021AC2927F907E011A
:1000CE007D007C0012021AD292758F02E4F58643EF
:0900DE009C04438F08D2AF80FEA0
:1001CF008F138E128D118C10538EF7438901D28CA1
:1001DF00E4FFFEFDFCAB13AA12A911A810C3120273
:1001EF00B06025758A7E758CFF308DFDC28DE5134D
:1001FF0024FFF513E51234FFF512E51134FFF51165
:0B020F00E51034FFF51080C8C28C22FF
:10021A008F0F8E0E8D0D8C0C538EF7438901D28C65
:10022A00E4FFFEFDFCAB0FAA0EA90DA80CC3120237
:10023A00B06025758ACA758CFA308DFDC28DE50FBE
:10024A0024FFF50FE50E34FFF50EE50D34FFF50D2D
:0B025A00E50C34FFF50C80C8C28C22BC
:100265008F0B8E0A8D098C08538EEF438910D28E21
:10027500E4FFFEFDFCAB0BAA0AA909A808C31202FC
:10028500B06025758BEA758DCB308FFDC28FE50B80
:1002950024FFF50BE50A34FFF50AE50934FFF509F6
:0B02A500E50834FFF50880C8C28E2277
:1000E7008F178E168D158C1453C9BF53C9DF43C99B
:1000F70010D2CAE4FFFEFDFCAB17AA16A915A81477
:10010700C31202B0602575CC3075CDF830CFFDC273
:10011700CFE51724FFF517E51634FFF516E5153477
:0E012700FFF515E51434FFF51480C8C2CA2296
:100135008F1B8E1A8D198C1875C40743C408E4FFEC
:10014500FEFDFCAB1BAA1AA919A818C31202B060C0
:100155002875C52C75C6CFE5C430E4FB53C4EFE55F
:100165001B24FFF51BE51A34FFF51AE51934FFF5D5
:0D01750019E51834FFF51880C553C4F722B2
:100182008F1F8E1E8D1D8C1C75C40743C408E4FF8F
:10019200FEFDFCAB1FAA1EA91DA81CC31202B06063
:1001A2002875C5D875C6FFE5C430E4FB53C4EFE536
:1001B2001F24FFF51FE51E34FFF51EE51D34FFF574
:0D01C2001DE51C34FFF51C80C553C4F72259
:0300000002006794
:10006700787FE4F6D8FD9000007FFF7E03E4F0A3DD
:0A007700DFFCDEFA75812002008E26
:1002B000EB9FF5F0EA9E42F0E99D42F0E89C45F0A4
:0102C000221B
:00000001FF
