:0300030002003EBA
:10003E00C0E0C0F0C083C082C0D075D000C000C088
:10004E0001C002C003C004C005C006C007C2927F33
:10005E00647E007D007C00120573D2927F647E0068
:10006E007D007C00120573C2927F647E007D007C51
:10007E0000120573D2927F647E007D007C00120513
:10008E0073C2927F647E007D007C00120573D29253
:10009E007F647E007D007C00120573C2927F647EB9
:1000AE00007D007C00120573D2927F647E007D007D
:1000BE007C00120573C2927F647E007D007C00126C
:1000CE000573D2927F647E007D007C00120573C2A0
:1000DE00927F647E007D007C00120573D2927F6455
:1000EE007E007D007C00120573C2927F647E007DCF
:1000FE00007C00120573D2927F647E007D007C002E
:10010E00120573C2927F647E007D007C001205731F
:10011E00D2927F647E007D007C00120573D007D0E2
:10012E0006D005D004D003D002D001D000D0D0D05C
:08013E0082D083D0F0D0E03242
:03003B0002023886
:10023800C0E0C0F0C083C082C0D075D000C000C08C
:1002480001C002C003C004C005C006C007E5EC64D5
:1002580001700BF5ECC2927F0AFEFDFC8041E5ECD3
:1002680064807065C2927F0AFEFDFC1205BED292C0
:100278007F0A7E007D007C001205BEC2927F0A7E46
:10028800007D007C001205BED2927F0A7E007D00B0
:100298007C001205BEC2927F0A7E007D007C00129F
:1002A80005BED2927F0A7E007D007C001205BEC288
:1002B800927F0A7E007D007C001205BED2927F0AE2
:1002C8007E007D007C001205BED007D006D005D088
:1002D80004D003D002D001D000D0D0D082D083D0B7
:0402E800F0D0E03240
:1002EC0043B18053B27FA2AF920075C7AA75C755B0
:1002FC0075910143B18075C7AA75C755E4F591A2F4
:10030C000092AF43B10153B2FE43B10253B2FDA20E
:10031C00AF920075C7AA75C75575910143B10275A7
:10032C00C7AA75C755F591A20092AF53B3FB43B45E
:10033C000453ACFE43AD0153B1DF43B22053E9FB90
:10034C0053E97F43EA8053EB7F53E9FD43EA0153C2
:10035C00EBFED2B0C285439B02D2A8D2AFC281C2FF
:07036C00B0D281D2B080F68F
:1006090053B1BF53B2BF53B17F53B27F75985043B3
:100619008920438780438E1053C4DFAB07AA06A9FC
:1006290005A8047F407E427D0F7C00120182EF0401
:09063900F404F58DD28ED2992251
:100373008F138E128D118C1053B1BF53B2BF53B173
:100383007F53B27F75985043878053C4F843C4208A
:10039300AB13AA12A911A8107F407E427D0F7C00E7
:1003A300120182C374FF9FFF74FF9EFEE49DFDE470
:1003B3009CFC78081202258FC6AB13AA12A911A8B8
:1003C300107F407E427D0F7C00120182C374FF9F29
:0903D300FF8FC543C408D2992232
:070020003098FDAF99C29872
:0100270022B6
:08002800C2998F993099FD2265
:1003DC008F178E168D158C1453B1FB53B2FB53B380
:1003EC00BF53B4BF75F85075C40853C4DFAB17AA1C
:1003FC0016A915A8147F407E427D0F7C0012018245
:10040C00C374FF9FFF74FF9EFEE49DFDE49CFC788B
:10041C00081202258FC6AB17AA16A915A8147F407F
:10042C007E427D0F7C00120182C374FF9FFF8FC53B
:04043C0043C408228B
:0700300030F8FDAF9AC2F8A1
:0100370022A6
:08064200C2F98F9A30F9FD2284
:100528008F1B8E1A8D198C18538EF7438901D28C24
:10053800E4FFFEFDFCAB1BAA1AA919A818C31202F6
:10054800146025758A7E758CFF308DFDC28DE51B84
:1005580024FFF51BE51A34FFF51AE51934FFF519E0
:0B056800E51834FFF51880C8C28C2293
:100573008F0B8E0A8D098C08538EF7438901D28C19
:10058300E4FFFEFDFCAB0BAA0AA909A808C31202EB
:10059300146025758ACA758CFA308DFDC28DE50B02
:1005A30024FFF50BE50A34FFF50AE50934FFF509E5
:0B05B300E50834FFF50880C8C28C2268
:1005BE008F0F8E0E8D0D8C0C538EEF438910D28EB5
:1005CE00E4FFFEFDFCAB0FAA0EA90DA80CC3120290
:1005DE00146025758BEA758DCB308FFDC28FE50FBC
:1005EE0024FFF50FE50E34FFF50EE50D34FFF50D86
:0B05FE00E50C34FFF50C80C8C28E2213
:100440008F1F8E1E8D1D8C1C53C9BF53C9DF43C91E
:1004500010D2CAE4FFFEFDFCAB1FAA1EA91DA81CFA
:10046000C3120214602575CC3075CDF830CFFDC2B3
:10047000CFE51F24FFF51FE51E34FFF51EE51D34F3
:0E048000FFF51DE51C34FFF51C80C8C2CA2222
:10048E008F248E238D228C2175C40743C408E4FF6C
:10049E00FEFDFCAB24AA23A922A821C312021460DC
:1004AE002875C52C75C6CFE5C430E4FB53C4EFE503
:1004BE002424FFF524E52334FFF523E52234FFF54C
:0D04CE0022E52134FFF52180C553C4F7223B
:1004DB008F288E278D268C2575C40743C408E4FF0F
:1004EB00FEFDFCAB28AA27A926A825C3120214607F
:1004FB002875C5D875C6FFE5C430E4FB53C4EFE5DA
:10050B002824FFF528E52734FFF527E52634FFF5EA
:0D051B0026E52534FFF52580C553C4F722E1
:03000000020006F5
:10000600787FE4F6D8FD9000007FFF7E03E4F0A33E
:0A001600DFFCDEFA7581280202EC1F
:1001460075F008758200EF2FFFEE33FECD33CDCC70
:1001560033CCC58233C5829BED9AEC99E5829840F3
:100166000CF582EE9BFEED9AFDEC99FC0FD5F0D6D0
:10017600E4CEFBE4CDFAE4CCF9A88222B800C1B9FA
:100186000059BA002DEC8BF084CFCECDFCE5F0CB38
:10019600F97818EF2FFFEE33FEED33FDEC33FCEB71
:1001A60033FB10D703994004EB99FB0FD8E5E4F92C
:1001B600FA227818EF2FFFEE33FEED33FDEC33FC19
:1001C600C933C910D7059BE99A4007EC9BFCE99A0D
:1001D600F90FD8E0E4C9FAE4CCFB2275F010EF2F52
:1001E600FFEE33FEED33FDCC33CCC833C810D70752
:1001F6009BEC9AE899400AED9BFDEC9AFCE899F88D
:0E0206000FD5F0DAE4CDFBE4CCFAE4C8F9221F
:10021400EB9FF5F0EA9E42F0E99D42F0E89C45F040
:0102240022B7
:10022500E8600FECC313FCED13FDEE13FEEF13FFB7
:03023500D8F122DB
:00000001FF
