:03000000020C2FC0
:100C2F0075C7AA75C75575FD5A75C7AA75C7557586
:100C3F00FDA5787FE4F6D8FD9000007FFF7E03E4EA
:0C0C4F00F0A3DFFCDEFA7581280209D753
:100B15008F108E0F8D0E8C0D538EF7438901D28C5D
:100B2500E4FFFEFDFCAB10AA0FA90EA80DC3120829
:100B3500CE6025758A7E758CFF308DFDC28D74FF64
:100B45002510F510E50F34FFF50FE50E34FFF50E12
:0B0B5500E50D34FFF50D80C8C28C22B6
:100B60008F148E138D128C11538EF7438901D28C02
:100B7000E4FFFEFDFCAB14AA13A912A811C31208CE
:100B8000CE6025758ACA758CFA308DFDC28D74FFD2
:100B90002514F514E51334FFF513E51234FFF512AF
:0B0BA000E51134FFF51180C8C28C2263
:100BAB008F188E178D168C15538EEF438910D28E9E
:100BBB00E4FFFEFDFCAB18AA17A916A815C3120873
:100BCB00CE6025758BEA758DCB308FFDC28F74FF90
:100BDB002518F518E51734FFF517E51634FFF5164C
:0B0BEB00E51534FFF51580C8C28E220E
:100A2D008F0C8E0B8D0A8C0953C9BF53C9DF43C977
:100A3D0010D2CAE4FFFEFDFCAB0CAA0BA90AA80953
:100A4D00C31208CE602575CC3075CDF830CFFDC200
:100A5D00CF74FF250CF50CE50B34FFF50BE50A34CF
:0E0A6D00FFF50AE50934FFF50980C8C2CA2268
:100A7B008F1C8E1B8D1A8C1975C40743C408E4FF99
:100A8B00FEFDFCAB1CAA1BA91AA819C31208CE6049
:100A9B002875C52C75C6CFE5C430E4FB53C4EF7481
:100AAB00FF251CF51CE51B34FFF51BE51A34FFF580
:0D0ABB001AE51934FFF51980C553C4F72260
:100AC8008F248E238D228C2175C40743C408E4FF2C
:100AD800FEFDFCAB24AA23A922A821C31208CE60DC
:100AE8002875C5D875C6FFE5C430E4FB53C4EF7458
:100AF800FF2524F524E52334FFF523E52234FFF50B
:0D0B080022E52134FFF52180C553C4F722FA
:100BF60053B1BF53B2BF53B17F53B27F75985043C1
:100C06008920438780438E1053C4DFAB07AA06A909
:100C160005A8047F407E427D0F7C0012083CEF044D
:090C2600F404F58DD28ED299225E
:1008F2008F0C8E0B8D0A8C0953B1BF53B2BF53B10B
:100902007F53B27F75985043878053C4F843C42005
:10091200AB0CAA0BA90AA8097F407E427D0F7C007E
:1009220012083CC374FF9FFF74FF9EFEE49DFDE42A
:100932009CFC78081208DF8FC6AB0CAA0BA90AA888
:10094200097F407E427D0F7C0012083CC374FF9FEA
:10095200FF74FF9EFEE49DFDE49CFCEFE48FC54323
:05096200C408D2992237
:070C5B003098FDAF99C2982B
:010C6200226F
:080C6300C2998F993099FD221E
:100967008F288E278D268C2553B1FB53B2FB53B3AB
:10097700BF53B4BF75F85075C40853C4DFAB28AA7A
:1009870027A926A8257F407E427D0F7C0012083CC0
:10099700C374FF9FFF74FF9EFEE49DFDE49CFC78FB
:1009A700081208DF8FC6AB28AA27A926A8257F40EB
:1009B7007E427D0F7C0012083CC374FF9FFF74FFCB
:1009C7009EFEE49DFDE49CFCEFE48FC543C4082232
:070C6B0030F8FDAF9AC2F85A
:010C7200225F
:080C7300C2F98F9A30F9FD224D
:1009D700E4F5B1F5B2F5B3F5B4F5ACF5ADFF7EC20C
:1009E7007D01FC1208F2438E021508C2927F2C7E0D
:1009F700017D007C00120A2DD2927F2C7E017D00A2
:100A07007C00120A2D7F55120C6375ACFFE4F5AD1F
:100A1700F5ACF5AD30B004D2908002C290740625D3
:050A270008F50880C481
:010A2C0022A7
:1008000075F008758200EF2FFFEE33FECD33CDCCAF
:1008100033CCC58233C5829BED9AEC99E582984032
:100820000CF582EE9BFEED9AFDEC99FC0FD5F0D60F
:10083000E4CEFBE4CDFAE4CCF9A88222B800C1B939
:100840000059BA002DEC8BF084CFCECDFCE5F0CB77
:10085000F97818EF2FFFEE33FEED33FDEC33FCEBB0
:1008600033FB10D703994004EB99FB0FD8E5E4F96B
:10087000FA227818EF2FFFEE33FEED33FDEC33FC58
:10088000C933C910D7059BE99A4007EC9BFCE99A4C
:10089000F90FD8E0E4C9FAE4CCFB2275F010EF2F91
:1008A000FFEE33FEED33FDCC33CCC833C810D70791
:1008B0009BEC9AE899400AED9BFDEC9AFCE899F8CC
:0E08C0000FD5F0DAE4CDFBE4CCFAE4C8F9225F
:1008CE00EB9FF5F0EA9E42F0E99D42F0E89C45F080
:0108DE0022F7
:1008DF00E8600FECC313FCED13FDEE13FEEF13FFF7
:0308EF00D8F1221B
:00000001FF
