:03000B0002000EE2
:09000E00758C00758A80B29232F3
:03001B000202449A
:09024400758D00758BFFB2833249
:1001E7007589FFE4F5B1F5B1F5B3F5B4F5ACF5AD47
:1001F7005389F053890F538EF7538EEFF58C758A19
:1002070080F58D758BFFD2A9D2ABD2AFD28CD28EAF
:0202170080FE67
:100106008F0B8E0A8D098C08538EF7438901D28C8A
:10011600E4FFFEFDFCAB0BAA0AA909A808C312025C
:10012600336025758A7E758CFF308DFDC28DE50B9B
:1001360024FFF50BE50A34FFF50AE50934FFF50956
:0B014600E50834FFF50880C8C28C22D9
:100151008F0F8E0E8D0D8C0C538EF7438901D28C2F
:10016100E4FFFEFDFCAB0FAA0EA90DA80CC3120201
:10017100336025758ACA758CFA308DFDC28DE50F05
:1001810024FFF50FE50E34FFF50EE50D34FFF50DF7
:0B019100E50C34FFF50C80C8C28C2286
:10019C008F138E128D118C10538EEF438910D28ECB
:1001AC00E4FFFEFDFCAB13AA12A911A810C31202A6
:1001BC00336025758BEA758DCB308FFDC28FE513BF
:1001CC0024FFF513E51234FFF512E51134FFF51198
:0B01DC00E51034FFF51080C8C28E2231
:10001E008F178E168D158C1453C9BF53C9DF43C964
:10002E0010D2CAE4FFFEFDFCAB17AA16A915A81440
:10003E00C3120233602575CC3075CDF830CFFDC2BA
:10004E00CFE51724FFF517E51634FFF516E5153441
:0E005E00FFF515E51434FFF51480C8C2CA2260
:10006C008F1B8E1A8D198C1875C40743C408E4FFB6
:10007C00FEFDFCAB1BAA1AA919A818C31202336007
:10008C002875C52C75C6CFE5C430E4FB53C4EFE529
:10009C001B24FFF51BE51A34FFF51AE51934FFF59F
:0D00AC0019E51834FFF51880C553C4F7227C
:1000B9008F1F8E1E8D1D8C1C75C40743C408E4FF59
:1000C900FEFDFCAB1FAA1EA91DA81CC312023360AA
:1000D9002875C5D875C6FFE5C430E4FB53C4EFE500
:1000E9001F24FFF51FE51E34FFF51EE51D34FFF53E
:0D00F9001DE51C34FFF51C80C553C4F72223
:03000000020219E0
:10021900787FE4F6D8FD9000007FFF7E03E4F0A329
:0A022900DFFCDEFA7581200201E718
:10023300EB9FF5F0EA9E42F0E99D42F0E89C45F021
:010243002298
:00000001FF
