:1000B200A2AF9200C2AF75C7AA75C755439F01A2EE
:1000C2000092AF75A604E4F5A775AE0F75AFE1A275
:1000D200AF9200C2AF75C7AA75C75543A504A20067
:1000E20092AFA2AF9200C2AF75C7AA75C75543A41B
:1000F20001A20092AFE59F20E6FBA2AF9200C2AF41
:1001020075C7AA75C75553A5FBA20092AFA2AF92BD
:1001120000C2AF75C7AA75C755539FFEA20092AF22
:0101220022BA
:10000300E4F5B1F5B1F5B3F5B4F5ACF5ADC2927F56
:1000130032FEFDFC120256D2927F327E007D007CBE
:1000230000120256C2927F327E007D007C001202D3
:1000330056D2927F327E007D007C0012025675C735
:10004300AA75C75575AA07A2AF9200C2AF75C7AA12
:1000530075C75543AA40A20092AFE5AA44BFF46016
:10006300F9D2AFA2AF9200C2AF75C7AA75C7554305
:10007300AA80A20092AFC2927FF47E017D007C0031
:10008300120256D2927FF47E017D007C001202564A
:10009300C2927FF47E017D007C00120256D2927FD1
:0F00A300F47E017D007C0012025643870280C765
:10020B008F0B8E0A8D098C08538EF7438901D28C84
:10021B00E4FFFEFDFCAB0BAA0AA909A808C3120355
:10022B00066025758A7E758CFF308DFDC28DE50BC2
:10023B0024FFF50BE50A34FFF50AE50934FFF50950
:0B024B00E50834FFF50880C8C28C22D3
:100256008F1F8E1E8D1D8C1C538EF7438901D28CE9
:10026600E4FFFEFDFCAB1FAA1EA91DA81CC31203BA
:10027600066025758ACA758CFA308DFDC28DE51F1C
:1002860024FFF51FE51E34FFF51EE51D34FFF51DA1
:0B029600E51C34FFF51C80C8C28C2260
:1002A1008F0F8E0E8D0D8C0C538EEF438910D28ED5
:1002B100E4FFFEFDFCAB0FAA0EA90DA80CC31203AF
:1002C100066025758BEA758DCB308FFDC28FE50FEA
:1002D10024FFF50FE50E34FFF50EE50D34FFF50DA6
:0B02E100E50C34FFF50C80C8C28E2233
:100123008F138E128D118C1053C9BF53C9DF43C96E
:1001330010D2CAE4FFFEFDFCAB13AA12A911A8104A
:10014300C3120306602575CC3075CDF830CFFDC2E0
:10015300CFE51324FFF513E51234FFF512E511344F
:0E016300FFF511E51034FFF51080C8C2CA2266
:100171008F178E168D158C1475C40743C408E4FFC0
:10018100FEFDFCAB17AA16A915A814C3120306603D
:100191002875C52C75C6CFE5C430E4FB53C4EFE523
:1001A1001724FFF517E51634FFF516E51534FFF5AD
:0D01B10015E51434FFF51480C553C4F72282
:1001BE008F1B8E1A8D198C1875C40743C408E4FF63
:1001CE00FEFDFCAB1BAA1AA919A818C312030660E0
:1001DE002875C5D875C6FFE5C430E4FB53C4EFE5FA
:1001EE001B24FFF51BE51A34FFF51AE51934FFF54C
:0D01FE0019E51834FFF51880C553C4F72229
:030000000202EC0D
:1002EC00787FE4F6D8FD9000007FFF7E03E4F0A356
:0A02FC00DFFCDEFA7581200200032A
:10030600EB9FF5F0EA9E42F0E99D42F0E89C45F04D
:0103160022C4
:00000001FF
