:0F000E00758A00758C00D28C43B71075A89222AA
:1007AD00759852438922438780438E1053C4DF7559
:0907BD008DF7D28ED2ACD2AF222E
:1007770053A2FB759852438922438780438E1053B7
:0C078700C4DF758DE5D28ED2ACD2AF225B
:10075300750F00E50FC394405019C299AF0F744051
:100763002FF582E43400F583E0FF8F993099FD057E
:040773000F80E022F1
:030023000206A72B
:1006A700C0E0C083C082C0D075D000C007309813A7
:1006B700AF16051674002FF582E43400F583E5992B
:1006C700F0C298309902C299E516B40105C20275C5
:1006D7000A5AE516B4400AD204750A00C202751612
:0C06E70000D007D0D0D082D083D0E03209
:03000B0002072CBD
:10072C00C0E0E50945086010E509150970021508D7
:10073C00E50945087002D201E50A6008150AE50AC8
:07074C007002D202D0E0327E
:10061A00A2AF9200C2AF75C7AA75C755439F01A280
:10062A000092AF75AF0C75A60075A70075C7AA75BD
:10063A00C75543A40185AE2675A60175C7AA75C715
:10064A005543A40185AE2575AFC075A60075A700F0
:10065A0075C7AA75C75543A40185AE2775A6017546
:10066A00C7AA75C75543A40185AE2875A60275C7E2
:10067A00AA75C75543A40185AE2975A60475C7AAEC
:10068A0075C75543A40185AE2AA2AF9200C2AF75C1
:0D069A00C7AA75C755539FFEA20092AF225C
:10057900750E00750D00750C00750B00750F00E503
:100589000FC39440502AAF0F74002FF582E4340052
:10059900F583E0FFE4FCFDFEE50E2FF50EE50D3ECB
:1005A900F50DE50C3DF50CE50B3CF50B050F80CF82
:1005B900E50E54FFFFE50D5400FEE50C5400FDE582
:1005C9000B5400FC900040EFF0AF0EAE0DAD0CAC3B
:1005D9000B78081206F3EF54FFFFEE5400FEED54BA
:1005E90000FDEC5400FC900041EFF0900004E0FFA6
:1005F900EF04FF900044EFF0900005E0FF90004504
:10060900EFF0900044E0FFEF7006900045E004F041
:0106190022BE
:1004CA00A2AF9200C2AF75C7AA75C755439F01A2D2
:1004DA000092AF75A63075A70075AF04A2AF92005F
:1004EA00C2AF75C7AA75C75543A401A20092AF85CA
:1004FA00AE2375A63175A700A2AF9200C2AF75C729
:10050A00AA75C75543A401A20092AF85AE24A2AF33
:10051A009200C2AF75C7AA75C755539FFEA2009233
:10052A00AF532401AF237E00EF25E0FFEE33FEE553
:10053A00245401FD7C00EF2DF522EE3CF52174F1E7
:10054A002522F52274FF3521F521AF22EF5401F55A
:10055A0024E521C313FEE52213FF8F2375C7AA756D
:0F056A00C75585238475C7AA75C7558524852273
:1000260075B10075B20075B30075B40075B500758D
:10003600B60075AC0075AD001204CA12061A120796
:10004600AD12000E789076AAC2017508137509885C
:10005600C2032004028191C2AF2003022146750F1C
:1000660008E50FC394404002210575AF21AF18EF94
:1000760054FFF5A6E517FF7E00EF54FFF5A7AF0F77
:1000860074002FF582E43400F583E0FF8FAE75C768
:10009600AA75C75543A40175AF0075C7AA75C7559C
:1000A60043A401AF0F74002FF582E43400F583E01A
:1000B600FFE5AE6F600280FEE59FB4430280FEAFAF
:1000C6000F74002FF582E43400F583E0FFE4FCFDB5
:1000D600FEE5152FF515E5143EF514E5133DF5136C
:1000E600E5123CF5120518E51870020517E518B576
:1000F6001109E517B51004C2038004050F01671244
:100106000579E51554FFFFE5145400FEE513540088
:10011600FDE5125400FC900048EFF0AF15AE14ADAB
:1001260013AC1278081206F3EF54FFFFEE5400FEEC
:10013600ED5400FDEC5400FC900049EFF01207531B
:10014600900000E0FFEF1207060315A001DFA101F2
:10015600A7A2016BA4017BA604B5AB016BAE018916
:10016600B10000048A120579120753750800750953
:1001760000C201818A1205799000487427F012079F
:1001860053818A120579900048E526F0900049E5EA
:1001960025F090004AE4F090004BE4F012075381FA
:1001A6008A120579900048E527F0900049E528F085
:1001B60090004AE529F090004B74FFF090004CE562
:1001C6002AF090004D74FFF090004E74FFF09000FE
:1001D6004F74FFF0120753818A900008E0FF8F2CBE
:1001E600900009E0FF8F2D90000AE0FF8F2E90000F
:1001F6000CE0FF8F2FA2AF9200C2AF75C7AA75C7DA
:1002060055439F01A20092AFA2AF9200C2AF75C73D
:10021600AA75C75543A504A20092AF75AFE275A6AD
:100226000075A70075AEFF75C7AA75C75543A4012B
:1002360075AFE175A60075A700852CAE75C7AA75C2
:10024600C75543A401852DAE75A60175C7AA75C706
:100256005543A40175A602852EAE75C7AA75C75566
:1002660043A40175A604852FAE75C7AA75C7554365
:10027600A401A2AF9200C2AF75C7AA75C75553A510
:10028600FBA20092AF75AFC075A60075C7AA75C769
:100296005543A40185AE2775A60175C7AA75C7552E
:1002A60043A40185AE2875A60275C7AA75C755432E
:1002B600A40185AE2975A60475C7AA75C75543A4BA
:1002C6000185AE2AA2AF9200C2AF75C7AA75C755FF
:1002D600539FFEA20092AF120579900048E527F0E1
:1002E600900049E528F090004AE529F090004B740B
:1002F600FFF090004CE52AF090004D74FFF090005E
:100306004E74FFF090004F74FFF0120753818A7508
:10031600C7AA75C755439F0175C7AA75C75543A593
:100326000175AEFF75AF22751700751800C3E51885
:100336009440E51794005034AF18EF75F080A4FF91
:10034600EF54FFF5A6E518AE177807C333CE33CEC4
:10035600D8F9FFEEFF7E008FA775C7AA75C755436C
:10036600A4010518E5187002051780C175150075FA
:1003760014007513007512007517007518007510B6
:100386000075110090000CE0FF7E008E108F11901A
:10039600000DE0FF7E00EF7F00FEEF4211EE4210FF
:1003A600D203750F10E50FC394404002814975AF23
:1003B60021AF18EF54FFF5A6E517FF7E00EF54FFB7
:1003C600F5A7AF0F74002FF582E43400F583E0FF44
:1003D6008FAE75C7AA75C75543A40175AF0075C71B
:1003E600AA75C75543A401AF0F74002FF582E434F4
:1003F60000F583E0FFE5AE6F600280FEE59FB44343
:100406000280FEAF0F74002FF582E43400F583E01E
:10041600FFE4FCFDFEE5152FF515E5143EF514E5A4
:10042600133DF513E5123CF5120518E518700205A3
:1004360017E518B51109E517B51004C203800405C0
:100446000F61AB120579E51554FFFFE5145400FE64
:10045600E5135400FDE5125400FC900048EFF0AFA0
:1004660015AE14AD13AC1278081206F3EF54FFFF65
:10047600EE5400FEED5400FDEC5400FC900049EFF4
:10048600F0120753C204751600D2AF2001212002D4
:10049600020158E516C394405007E516D394005060
:1004A60009E516D394405002015875160001587597
:1004B600C7AA75C755539FFD75C7AA75C755439FEC
:0304C6008080FE35
:0104C9002210
:0300000002079361
:100793007800E4F6D8FD9000007FFF7E01E4F0A32B
:0A07A300DFFCDEFA758190020026EB
:1006F300E8600FECC313FCED13FDEE13FEEF13FFE5
:03070300D8F12208
:10070600D083D082F8E4937012740193700DA3A382
:1007160093F8740193F5828883E473740293686096
:06072600EFA3A3A380DF96
:00000001FF
