:0300530002005652
:10005600C0E0C0F0C083C082C0D075D000C000C070
:1000660001C002C003C004C005C006C007C2927F1B
:10007600327E007D007C001201CDD2927F327E005E
:100086007D007C001201CDC2927F327E007D007C15
:10009600001201CDD2927F327E007D007C001201DB
:1000A600CDA2AF9200C2AF75C7AA75C75553AADFD6
:1000B600A20092AFA2AF9200C2AF75C7AA75C7558C
:1000C60043AA40A20092AFD007D006D005D004D0F4
:1000D60003D002D001D000D0D0D082D083D0F0D0CF
:0200E600E03206
:10026300E4F5B1F5B1F5B3F5B4F5ACF5AD75C7AAE1
:1002730075C75575AA06A2AF9200C2AF75C7AA7516
:10028300C75543AA80A20092AFA2AF9200C2AF7536
:10029300C7AA75C75543AA40A20092AF439B10D289
:0302A300AF80FE2B
:100182008F0B8E0A8D098C08538EF7438901D28C0E
:10019200E4FFFEFDFCAB0BAA0AA909A808C31202E0
:1001A200C06025758A7E758CFF308DFDC28DE50B92
:1001B20024FFF50BE50A34FFF50AE50934FFF509DA
:0B01C200E50834FFF50880C8C28C225D
:1001CD008F1F8E1E8D1D8C1C538EF7438901D28C73
:1001DD00E4FFFEFDFCAB1FAA1EA91DA81CC3120245
:1001ED00C06025758ACA758CFA308DFDC28DE51FEC
:1001FD0024FFF51FE51E34FFF51EE51D34FFF51D2B
:0B020D00E51C34FFF51C80C8C28C22E9
:100218008F0F8E0E8D0D8C0C538EEF438910D28E5E
:10022800E4FFFEFDFCAB0FAA0EA90DA80CC3120239
:10023800C06025758BEA758DCB308FFDC28FE50FB9
:1002480024FFF50FE50E34FFF50EE50D34FFF50D2F
:0B025800E50C34FFF50C80C8C28E22BC
:100003008F138E128D118C1053C9BF53C9DF43C98F
:1000130010D2CAE4FFFEFDFCAB13AA12A911A8106B
:10002300C31202C0602575CC3075CDF830CFFDC248
:10003300CFE51324FFF513E51234FFF512E5113470
:0E004300FFF511E51034FFF51080C8C2CA2287
:1000E8008F178E168D158C1475C40743C408E4FF4A
:1000F800FEFDFCAB17AA16A915A814C31202C0600E
:100108002875C52C75C6CFE5C430E4FB53C4EFE5AC
:100118001724FFF517E51634FFF516E51534FFF536
:0D01280015E51434FFF51480C553C4F7220B
:100135008F1B8E1A8D198C1875C40743C408E4FFEC
:10014500FEFDFCAB1BAA1AA919A818C31202C060B0
:100155002875C5D875C6FFE5C430E4FB53C4EFE583
:100165001B24FFF51BE51A34FFF51AE51934FFF5D5
:0D01750019E51834FFF51880C553C4F722B2
:030000000202A653
:1002A600787FE4F6D8FD9000007FFF7E03E4F0A39C
:0A02B600DFFCDEFA7581200202630E
:1002C000EB9FF5F0EA9E42F0E99D42F0E89C45F094
:0102D000220B
:00000001FF
